{
  "_format": "hh-sol-artifact-1",
  "contractName": "YearnTogetherStaking",
  "sourceName": "contracts/YearnTogetherStaking.sol",
  "abi": [
    {
      "inputs": [],
      "name": "APRAlreadyClaimed",
      "type": "error"
    },
    {
      "inputs": [],
      "name": "APRClaimNotAllowed",
      "type": "error"
    },
    {
      "inputs": [],
      "name": "APRNotYetClaimable",
      "type": "error"
    },
    {
      "inputs": [],
      "name": "APRZeroAmount",
      "type": "error"
    },
    {
      "inputs": [],
      "name": "AlreadyGoldenStar",
      "type": "error"
    },
    {
      "inputs": [],
      "name": "AlreadyUnstaked",
      "type": "error"
    },
    {
      "inputs": [],
      "name": "BelowMinimumStakeAmount",
      "type": "error"
    },
    {
      "inputs": [],
      "name": "DuplicateComposition",
      "type": "error"
    },
    {
      "inputs": [],
      "name": "GoldenStarExpired",
      "type": "error"
    },
    {
      "inputs": [],
      "name": "InactivePackage",
      "type": "error"
    },
    {
      "inputs": [],
      "name": "IncorrectStarRewardAmount",
      "type": "error"
    },
    {
      "inputs": [],
      "name": "IneligibleStarLevel",
      "type": "error"
    },
    {
      "inputs": [],
      "name": "InsufficientYYearnForAPR",
      "type": "error"
    },
    {
      "inputs": [],
      "name": "InsufficientYYearnForGoldenRewards",
      "type": "error"
    },
    {
      "inputs": [],
      "name": "InsufficientYYearnForStarRewards",
      "type": "error"
    },
    {
      "inputs": [],
      "name": "InsufficientYYearnForUnstake",
      "type": "error"
    },
    {
      "inputs": [],
      "name": "InvalidCompositionSum",
      "type": "error"
    },
    {
      "inputs": [],
      "name": "InvalidGoldenStarCapMultiplier",
      "type": "error"
    },
    {
      "inputs": [],
      "name": "InvalidGoldenStarMinReferrals",
      "type": "error"
    },
    {
      "inputs": [],
      "name": "InvalidGoldenStarRewardDuration",
      "type": "error"
    },
    {
      "inputs": [],
      "name": "InvalidGoldenStarRewardPercent",
      "type": "error"
    },
    {
      "inputs": [],
      "name": "InvalidGoldenStarTimeWindow",
      "type": "error"
    },
    {
      "inputs": [],
      "name": "InvalidLevelOneReferralRequirement",
      "type": "error"
    },
    {
      "inputs": [],
      "name": "InvalidMaxReferralLevel",
      "type": "error"
    },
    {
      "inputs": [],
      "name": "InvalidMaxStarLevel",
      "type": "error"
    },
    {
      "inputs": [],
      "name": "InvalidMinStakeAmount",
      "type": "error"
    },
    {
      "inputs": [],
      "name": "InvalidOrUnclaimedStake",
      "type": "error"
    },
    {
      "inputs": [],
      "name": "InvalidPackageId",
      "type": "error"
    },
    {
      "inputs": [],
      "name": "InvalidReferralDepth",
      "type": "error"
    },
    {
      "inputs": [],
      "name": "InvalidReferralEndLevel",
      "type": "error"
    },
    {
      "inputs": [],
      "name": "InvalidReferralRewardPercent",
      "type": "error"
    },
    {
      "inputs": [],
      "name": "InvalidReferralRewardToken",
      "type": "error"
    },
    {
      "inputs": [],
      "name": "InvalidReferralStartLevel",
      "type": "error"
    },
    {
      "inputs": [],
      "name": "InvalidStakeMultiple",
      "type": "error"
    },
    {
      "inputs": [],
      "name": "InvalidStarLevel",
      "type": "error"
    },
    {
      "inputs": [],
      "name": "InvalidStarLevelCount",
      "type": "error"
    },
    {
      "inputs": [],
      "name": "InvalidStarRewardPercent",
      "type": "error"
    },
    {
      "inputs": [],
      "name": "InvalidSubLevelReferralRequirement",
      "type": "error"
    },
    {
      "inputs": [],
      "name": "InvalidTokenComposition",
      "type": "error"
    },
    {
      "inputs": [],
      "name": "MismatchedGoldenInputs",
      "type": "error"
    },
    {
      "inputs": [],
      "name": "MismatchedStakeInputs",
      "type": "error"
    },
    {
      "inputs": [],
      "name": "MonthlyUnstakePercentMissing",
      "type": "error"
    },
    {
      "inputs": [],
      "name": "NetRewardZero",
      "type": "error"
    },
    {
      "inputs": [],
      "name": "NoGoldenStarRewardsToClaim",
      "type": "error"
    },
    {
      "inputs": [],
      "name": "NoReferralRewardsToClaim",
      "type": "error"
    },
    {
      "inputs": [],
      "name": "NoReferrerFound",
      "type": "error"
    },
    {
      "inputs": [],
      "name": "NoStarLevelRewardsToClaim",
      "type": "error"
    },
    {
      "inputs": [],
      "name": "NonSequentialStarLevels",
      "type": "error"
    },
    {
      "inputs": [],
      "name": "NotEnoughRecentReferrals",
      "type": "error"
    },
    {
      "inputs": [],
      "name": "NotGoldenStar",
      "type": "error"
    },
    {
      "inputs": [],
      "name": "NotGoldenStarUser",
      "type": "error"
    },
    {
      "inputs": [],
      "name": "NotInReferralTree",
      "type": "error"
    },
    {
      "inputs": [],
      "name": "NotStarTierExecutor",
      "type": "error"
    },
    {
      "inputs": [],
      "name": "NothingToUnstake",
      "type": "error"
    },
    {
      "inputs": [
        {
          "internalType": "address",
          "name": "token",
          "type": "address"
        }
      ],
      "name": "SafeERC20FailedOperation",
      "type": "error"
    },
    {
      "inputs": [],
      "name": "StakeFullyUnstaked",
      "type": "error"
    },
    {
      "inputs": [
        {
          "internalType": "address",
          "name": "token",
          "type": "address"
        }
      ],
      "name": "UnsupportedToken",
      "type": "error"
    },
    {
      "inputs": [],
      "name": "ZeroRewardAmount",
      "type": "error"
    },
    {
      "anonymous": false,
      "inputs": [
        {
          "indexed": true,
          "internalType": "address",
          "name": "user",
          "type": "address"
        },
        {
          "indexed": false,
          "internalType": "uint256",
          "name": "stakeIndex",
          "type": "uint256"
        },
        {
          "indexed": false,
          "internalType": "uint16",
          "name": "packageId",
          "type": "uint16"
        },
        {
          "indexed": false,
          "internalType": "uint256",
          "name": "baseAPR",
          "type": "uint256"
        },
        {
          "indexed": false,
          "internalType": "uint256",
          "name": "netReward",
          "type": "uint256"
        }
      ],
      "name": "APRClaimed",
      "type": "event"
    },
    {
      "anonymous": false,
      "inputs": [
        {
          "indexed": false,
          "internalType": "address",
          "name": "previousAdmin",
          "type": "address"
        },
        {
          "indexed": false,
          "internalType": "address",
          "name": "newAdmin",
          "type": "address"
        }
      ],
      "name": "AdminChanged",
      "type": "event"
    },
    {
      "anonymous": false,
      "inputs": [
        {
          "indexed": true,
          "internalType": "address",
          "name": "beacon",
          "type": "address"
        }
      ],
      "name": "BeaconUpgraded",
      "type": "event"
    },
    {
      "anonymous": false,
      "inputs": [
        {
          "indexed": true,
          "internalType": "address",
          "name": "user",
          "type": "address"
        },
        {
          "indexed": false,
          "internalType": "uint256",
          "name": "stakeIndex",
          "type": "uint256"
        },
        {
          "indexed": false,
          "internalType": "uint256",
          "name": "reward",
          "type": "uint256"
        }
      ],
      "name": "Claimed",
      "type": "event"
    },
    {
      "anonymous": false,
      "inputs": [
        {
          "indexed": true,
          "internalType": "address",
          "name": "user",
          "type": "address"
        },
        {
          "indexed": false,
          "internalType": "uint256",
          "name": "activatedAt",
          "type": "uint256"
        }
      ],
      "name": "GoldenStarActivated",
      "type": "event"
    },
    {
      "anonymous": false,
      "inputs": [
        {
          "indexed": false,
          "internalType": "uint16",
          "name": "minReferrals",
          "type": "uint16"
        },
        {
          "indexed": false,
          "internalType": "uint32",
          "name": "timeWindow",
          "type": "uint32"
        },
        {
          "indexed": false,
          "internalType": "uint16",
          "name": "rewardPercent",
          "type": "uint16"
        },
        {
          "indexed": false,
          "internalType": "uint32",
          "name": "rewardDuration",
          "type": "uint32"
        },
        {
          "indexed": false,
          "internalType": "uint8",
          "name": "rewardCapMultiplier",
          "type": "uint8"
        }
      ],
      "name": "GoldenStarConfigUpdated",
      "type": "event"
    },
    {
      "anonymous": false,
      "inputs": [
        {
          "indexed": true,
          "internalType": "address",
          "name": "user",
          "type": "address"
        },
        {
          "indexed": false,
          "internalType": "uint256",
          "name": "amount",
          "type": "uint256"
        }
      ],
      "name": "GoldenStarRewardClaimed",
      "type": "event"
    },
    {
      "anonymous": false,
      "inputs": [
        {
          "indexed": true,
          "internalType": "address",
          "name": "user",
          "type": "address"
        },
        {
          "indexed": false,
          "internalType": "uint256",
          "name": "amount",
          "type": "uint256"
        },
        {
          "indexed": false,
          "internalType": "uint256",
          "name": "cumulative",
          "type": "uint256"
        },
        {
          "indexed": false,
          "internalType": "uint256",
          "name": "cap",
          "type": "uint256"
        }
      ],
      "name": "GoldenStarRewardDistributed",
      "type": "event"
    },
    {
      "anonymous": false,
      "inputs": [
        {
          "indexed": false,
          "internalType": "uint8",
          "name": "version",
          "type": "uint8"
        }
      ],
      "name": "Initialized",
      "type": "event"
    },
    {
      "anonymous": false,
      "inputs": [
        {
          "indexed": false,
          "internalType": "uint8",
          "name": "maxStarLevel",
          "type": "uint8"
        }
      ],
      "name": "MaxStarLevelUpdated",
      "type": "event"
    },
    {
      "anonymous": false,
      "inputs": [
        {
          "indexed": true,
          "internalType": "address",
          "name": "previousOwner",
          "type": "address"
        },
        {
          "indexed": true,
          "internalType": "address",
          "name": "newOwner",
          "type": "address"
        }
      ],
      "name": "OwnershipTransferred",
      "type": "event"
    },
    {
      "anonymous": false,
      "inputs": [
        {
          "indexed": true,
          "internalType": "uint256",
          "name": "id",
          "type": "uint256"
        },
        {
          "indexed": false,
          "internalType": "uint16",
          "name": "durationYears",
          "type": "uint16"
        },
        {
          "indexed": false,
          "internalType": "uint16",
          "name": "apr",
          "type": "uint16"
        },
        {
          "indexed": false,
          "internalType": "bool",
          "name": "monthlyUnstake",
          "type": "bool"
        },
        {
          "indexed": false,
          "internalType": "bool",
          "name": "isActive",
          "type": "bool"
        },
        {
          "indexed": false,
          "internalType": "uint256",
          "name": "minStakeAmount",
          "type": "uint256"
        },
        {
          "indexed": false,
          "internalType": "uint16",
          "name": "monthlyPrincipalReturnPercent",
          "type": "uint16"
        },
        {
          "indexed": false,
          "internalType": "bool",
          "name": "monthlyAPRClaimable",
          "type": "bool"
        },
        {
          "indexed": false,
          "internalType": "uint256",
          "name": "claimableInterval",
          "type": "uint256"
        },
        {
          "indexed": false,
          "internalType": "uint256",
          "name": "stakeMultiple",
          "type": "uint256"
        }
      ],
      "name": "PackageCreated",
      "type": "event"
    },
    {
      "anonymous": false,
      "inputs": [
        {
          "indexed": true,
          "internalType": "uint256",
          "name": "id",
          "type": "uint256"
        },
        {
          "indexed": false,
          "internalType": "uint16",
          "name": "durationYears",
          "type": "uint16"
        },
        {
          "indexed": false,
          "internalType": "uint16",
          "name": "apr",
          "type": "uint16"
        },
        {
          "indexed": false,
          "internalType": "bool",
          "name": "monthlyUnstake",
          "type": "bool"
        },
        {
          "indexed": false,
          "internalType": "bool",
          "name": "isActive",
          "type": "bool"
        },
        {
          "indexed": false,
          "internalType": "uint256",
          "name": "minStakeAmount",
          "type": "uint256"
        },
        {
          "indexed": false,
          "internalType": "uint16",
          "name": "monthlyPrincipalReturnPercent",
          "type": "uint16"
        },
        {
          "indexed": false,
          "internalType": "bool",
          "name": "monthlyAPRClaimable",
          "type": "bool"
        },
        {
          "indexed": false,
          "internalType": "uint256",
          "name": "claimableInterval",
          "type": "uint256"
        },
        {
          "indexed": false,
          "internalType": "uint256",
          "name": "stakeMultiple",
          "type": "uint256"
        }
      ],
      "name": "PackageUpdated",
      "type": "event"
    },
    {
      "anonymous": false,
      "inputs": [
        {
          "indexed": false,
          "internalType": "address",
          "name": "account",
          "type": "address"
        }
      ],
      "name": "Paused",
      "type": "event"
    },
    {
      "anonymous": false,
      "inputs": [
        {
          "indexed": true,
          "internalType": "address",
          "name": "user",
          "type": "address"
        },
        {
          "indexed": true,
          "internalType": "address",
          "name": "referrer",
          "type": "address"
        }
      ],
      "name": "ReferralAssigned",
      "type": "event"
    },
    {
      "anonymous": false,
      "inputs": [
        {
          "indexed": true,
          "internalType": "address",
          "name": "referrer",
          "type": "address"
        },
        {
          "indexed": false,
          "internalType": "uint8",
          "name": "level",
          "type": "uint8"
        },
        {
          "indexed": false,
          "internalType": "uint256",
          "name": "amount",
          "type": "uint256"
        },
        {
          "indexed": false,
          "internalType": "address",
          "name": "rewardToken",
          "type": "address"
        }
      ],
      "name": "ReferralRewardDistributed",
      "type": "event"
    },
    {
      "anonymous": false,
      "inputs": [
        {
          "indexed": false,
          "internalType": "uint8",
          "name": "startLevel",
          "type": "uint8"
        },
        {
          "indexed": false,
          "internalType": "uint8",
          "name": "endLevel",
          "type": "uint8"
        },
        {
          "indexed": false,
          "internalType": "uint16",
          "name": "rewardPercent",
          "type": "uint16"
        },
        {
          "indexed": false,
          "internalType": "address",
          "name": "rewardToken",
          "type": "address"
        }
      ],
      "name": "ReferralRewardTiersUpdated",
      "type": "event"
    },
    {
      "anonymous": false,
      "inputs": [
        {
          "indexed": true,
          "internalType": "address",
          "name": "user",
          "type": "address"
        },
        {
          "indexed": false,
          "internalType": "uint256",
          "name": "yAmount",
          "type": "uint256"
        },
        {
          "indexed": false,
          "internalType": "uint256",
          "name": "sAmount",
          "type": "uint256"
        },
        {
          "indexed": false,
          "internalType": "uint256",
          "name": "pAmount",
          "type": "uint256"
        }
      ],
      "name": "ReferralRewardsClaimed",
      "type": "event"
    },
    {
      "anonymous": false,
      "inputs": [
        {
          "indexed": true,
          "internalType": "address",
          "name": "user",
          "type": "address"
        },
        {
          "indexed": false,
          "internalType": "uint16",
          "name": "packageId",
          "type": "uint16"
        },
        {
          "indexed": false,
          "internalType": "uint256",
          "name": "amount",
          "type": "uint256"
        },
        {
          "indexed": false,
          "internalType": "uint256",
          "name": "stakeIndex",
          "type": "uint256"
        }
      ],
      "name": "Staked",
      "type": "event"
    },
    {
      "anonymous": false,
      "inputs": [
        {
          "indexed": false,
          "internalType": "uint8",
          "name": "levelOneRequirement",
          "type": "uint8"
        },
        {
          "indexed": false,
          "internalType": "uint8",
          "name": "subLevelRequirement",
          "type": "uint8"
        }
      ],
      "name": "StarLevelRequirementsUpdated",
      "type": "event"
    },
    {
      "anonymous": false,
      "inputs": [
        {
          "indexed": false,
          "internalType": "uint8",
          "name": "newMaxStarLevel",
          "type": "uint8"
        }
      ],
      "name": "StarLevelTiersUpdated",
      "type": "event"
    },
    {
      "anonymous": false,
      "inputs": [
        {
          "indexed": true,
          "internalType": "address",
          "name": "user",
          "type": "address"
        },
        {
          "indexed": false,
          "internalType": "uint8",
          "name": "newLevel",
          "type": "uint8"
        }
      ],
      "name": "StarLevelUpdated",
      "type": "event"
    },
    {
      "anonymous": false,
      "inputs": [
        {
          "indexed": true,
          "internalType": "address",
          "name": "user",
          "type": "address"
        },
        {
          "indexed": false,
          "internalType": "uint8",
          "name": "level",
          "type": "uint8"
        },
        {
          "indexed": false,
          "internalType": "uint256",
          "name": "amount",
          "type": "uint256"
        }
      ],
      "name": "StarRewardClaimed",
      "type": "event"
    },
    {
      "anonymous": false,
      "inputs": [
        {
          "indexed": true,
          "internalType": "address",
          "name": "user",
          "type": "address"
        },
        {
          "indexed": false,
          "internalType": "uint8",
          "name": "level",
          "type": "uint8"
        },
        {
          "indexed": false,
          "internalType": "uint256",
          "name": "amount",
          "type": "uint256"
        }
      ],
      "name": "StarRewardDistributed",
      "type": "event"
    },
    {
      "anonymous": false,
      "inputs": [
        {
          "indexed": true,
          "internalType": "address",
          "name": "newExecutor",
          "type": "address"
        }
      ],
      "name": "StarTierExecutorUpdated",
      "type": "event"
    },
    {
      "anonymous": false,
      "inputs": [
        {
          "indexed": false,
          "internalType": "address",
          "name": "account",
          "type": "address"
        }
      ],
      "name": "Unpaused",
      "type": "event"
    },
    {
      "anonymous": false,
      "inputs": [
        {
          "indexed": true,
          "internalType": "address",
          "name": "user",
          "type": "address"
        },
        {
          "indexed": false,
          "internalType": "uint256",
          "name": "stakeIndex",
          "type": "uint256"
        },
        {
          "indexed": false,
          "internalType": "uint256",
          "name": "amount",
          "type": "uint256"
        }
      ],
      "name": "Unstaked",
      "type": "event"
    },
    {
      "anonymous": false,
      "inputs": [
        {
          "indexed": true,
          "internalType": "address",
          "name": "implementation",
          "type": "address"
        }
      ],
      "name": "Upgraded",
      "type": "event"
    },
    {
      "anonymous": false,
      "inputs": [
        {
          "indexed": true,
          "internalType": "uint256",
          "name": "id",
          "type": "uint256"
        },
        {
          "indexed": false,
          "internalType": "uint8[]",
          "name": "composition",
          "type": "uint8[]"
        }
      ],
      "name": "ValidCompositionAdded",
      "type": "event"
    },
    {
      "inputs": [
        {
          "internalType": "uint8[3]",
          "name": "composition",
          "type": "uint8[3]"
        }
      ],
      "name": "addValidComposition",
      "outputs": [],
      "stateMutability": "nonpayable",
      "type": "function"
    },
    {
      "inputs": [
        {
          "internalType": "uint256",
          "name": "stakeIndex",
          "type": "uint256"
        }
      ],
      "name": "claimAPR",
      "outputs": [],
      "stateMutability": "nonpayable",
      "type": "function"
    },
    {
      "inputs": [],
      "name": "claimFeePercent",
      "outputs": [
        {
          "internalType": "uint256",
          "name": "",
          "type": "uint256"
        }
      ],
      "stateMutability": "view",
      "type": "function"
    },
    {
      "inputs": [],
      "name": "claimGoldenStarRewards",
      "outputs": [],
      "stateMutability": "nonpayable",
      "type": "function"
    },
    {
      "inputs": [],
      "name": "claimReferralRewards",
      "outputs": [],
      "stateMutability": "nonpayable",
      "type": "function"
    },
    {
      "inputs": [],
      "name": "claimStarLevelRewards",
      "outputs": [],
      "stateMutability": "nonpayable",
      "type": "function"
    },
    {
      "inputs": [
        {
          "internalType": "uint16",
          "name": "durationYears",
          "type": "uint16"
        },
        {
          "internalType": "uint16",
          "name": "apr",
          "type": "uint16"
        },
        {
          "internalType": "bool",
          "name": "monthlyUnstake",
          "type": "bool"
        },
        {
          "internalType": "bool",
          "name": "isActive",
          "type": "bool"
        },
        {
          "internalType": "uint256",
          "name": "minStakeAmount",
          "type": "uint256"
        },
        {
          "internalType": "uint16",
          "name": "monthlyPrincipalReturnPercent",
          "type": "uint16"
        },
        {
          "internalType": "bool",
          "name": "monthlyAPRClaimable",
          "type": "bool"
        },
        {
          "internalType": "uint256",
          "name": "claimableInterval",
          "type": "uint256"
        },
        {
          "internalType": "uint256",
          "name": "stakeMultiple",
          "type": "uint256"
        }
      ],
      "name": "createPackage",
      "outputs": [],
      "stateMutability": "nonpayable",
      "type": "function"
    },
    {
      "inputs": [
        {
          "internalType": "address",
          "name": "",
          "type": "address"
        },
        {
          "internalType": "uint16",
          "name": "",
          "type": "uint16"
        }
      ],
      "name": "cumulativeBaseAPR",
      "outputs": [
        {
          "internalType": "uint256",
          "name": "",
          "type": "uint256"
        }
      ],
      "stateMutability": "view",
      "type": "function"
    },
    {
      "inputs": [],
      "name": "feeCollector",
      "outputs": [
        {
          "internalType": "address",
          "name": "",
          "type": "address"
        }
      ],
      "stateMutability": "view",
      "type": "function"
    },
    {
      "inputs": [
        {
          "internalType": "uint16",
          "name": "packageId",
          "type": "uint16"
        }
      ],
      "name": "getClaimableInterval",
      "outputs": [
        {
          "internalType": "uint256",
          "name": "",
          "type": "uint256"
        }
      ],
      "stateMutability": "view",
      "type": "function"
    },
    {
      "inputs": [
        {
          "internalType": "address",
          "name": "user",
          "type": "address"
        }
      ],
      "name": "getGoldenStarCap",
      "outputs": [
        {
          "internalType": "uint256",
          "name": "",
          "type": "uint256"
        }
      ],
      "stateMutability": "view",
      "type": "function"
    },
    {
      "inputs": [
        {
          "internalType": "address",
          "name": "user",
          "type": "address"
        },
        {
          "internalType": "uint256",
          "name": "stakeIndex",
          "type": "uint256"
        }
      ],
      "name": "getNextClaimTime",
      "outputs": [
        {
          "internalType": "uint256",
          "name": "",
          "type": "uint256"
        }
      ],
      "stateMutability": "view",
      "type": "function"
    },
    {
      "inputs": [
        {
          "internalType": "uint16",
          "name": "packageId",
          "type": "uint16"
        }
      ],
      "name": "getPackageDetails",
      "outputs": [
        {
          "internalType": "uint16",
          "name": "id",
          "type": "uint16"
        },
        {
          "internalType": "uint16",
          "name": "durationYears",
          "type": "uint16"
        },
        {
          "internalType": "uint16",
          "name": "apr",
          "type": "uint16"
        },
        {
          "internalType": "bool",
          "name": "monthlyUnstake",
          "type": "bool"
        },
        {
          "internalType": "bool",
          "name": "isActive",
          "type": "bool"
        },
        {
          "internalType": "uint256",
          "name": "minStakeAmount",
          "type": "uint256"
        },
        {
          "internalType": "uint16",
          "name": "monthlyPrincipalReturnPercent",
          "type": "uint16"
        },
        {
          "internalType": "bool",
          "name": "monthlyAPRClaimable",
          "type": "bool"
        },
        {
          "internalType": "uint256",
          "name": "claimableInterval",
          "type": "uint256"
        },
        {
          "internalType": "uint256",
          "name": "stakeMultiple",
          "type": "uint256"
        }
      ],
      "stateMutability": "view",
      "type": "function"
    },
    {
      "inputs": [
        {
          "internalType": "address",
          "name": "user",
          "type": "address"
        }
      ],
      "name": "getPendingGoldenStarRewards",
      "outputs": [
        {
          "internalType": "uint256",
          "name": "",
          "type": "uint256"
        }
      ],
      "stateMutability": "view",
      "type": "function"
    },
    {
      "inputs": [
        {
          "internalType": "address",
          "name": "user",
          "type": "address"
        }
      ],
      "name": "getPendingStarRewards",
      "outputs": [
        {
          "internalType": "uint256[5]",
          "name": "",
          "type": "uint256[5]"
        }
      ],
      "stateMutability": "view",
      "type": "function"
    },
    {
      "inputs": [
        {
          "internalType": "address",
          "name": "user",
          "type": "address"
        }
      ],
      "name": "getReferrals",
      "outputs": [
        {
          "internalType": "address[]",
          "name": "",
          "type": "address[]"
        }
      ],
      "stateMutability": "view",
      "type": "function"
    },
    {
      "inputs": [
        {
          "internalType": "uint16",
          "name": "packageId",
          "type": "uint16"
        }
      ],
      "name": "getStakeMultiple",
      "outputs": [
        {
          "internalType": "uint256",
          "name": "",
          "type": "uint256"
        }
      ],
      "stateMutability": "view",
      "type": "function"
    },
    {
      "inputs": [
        {
          "internalType": "uint8",
          "name": "level",
          "type": "uint8"
        }
      ],
      "name": "getStarLevelRewardPercent",
      "outputs": [
        {
          "internalType": "uint16",
          "name": "",
          "type": "uint16"
        }
      ],
      "stateMutability": "view",
      "type": "function"
    },
    {
      "inputs": [
        {
          "internalType": "address",
          "name": "user",
          "type": "address"
        },
        {
          "internalType": "uint256",
          "name": "stakeIndex",
          "type": "uint256"
        }
      ],
      "name": "getUserStakeData",
      "outputs": [
        {
          "internalType": "uint256",
          "name": "totalStaked",
          "type": "uint256"
        },
        {
          "internalType": "uint256",
          "name": "claimedAPR",
          "type": "uint256"
        },
        {
          "internalType": "uint256",
          "name": "withdrawnPrincipal",
          "type": "uint256"
        },
        {
          "internalType": "uint40",
          "name": "startTime",
          "type": "uint40"
        },
        {
          "internalType": "uint40",
          "name": "lastClaimedAt",
          "type": "uint40"
        },
        {
          "internalType": "uint16",
          "name": "packageId",
          "type": "uint16"
        },
        {
          "internalType": "bool",
          "name": "isFullyUnstaked",
          "type": "bool"
        }
      ],
      "stateMutability": "view",
      "type": "function"
    },
    {
      "inputs": [],
      "name": "getValidCompositions",
      "outputs": [
        {
          "internalType": "uint8[][]",
          "name": "",
          "type": "uint8[][]"
        }
      ],
      "stateMutability": "view",
      "type": "function"
    },
    {
      "inputs": [
        {
          "internalType": "address",
          "name": "",
          "type": "address"
        }
      ],
      "name": "goldenStarActivation",
      "outputs": [
        {
          "internalType": "uint256",
          "name": "",
          "type": "uint256"
        }
      ],
      "stateMutability": "view",
      "type": "function"
    },
    {
      "inputs": [],
      "name": "goldenStarConfig",
      "outputs": [
        {
          "internalType": "uint16",
          "name": "minReferrals",
          "type": "uint16"
        },
        {
          "internalType": "uint32",
          "name": "timeWindow",
          "type": "uint32"
        },
        {
          "internalType": "uint16",
          "name": "rewardPercent",
          "type": "uint16"
        },
        {
          "internalType": "uint32",
          "name": "rewardDuration",
          "type": "uint32"
        },
        {
          "internalType": "uint8",
          "name": "rewardCapMultiplier",
          "type": "uint8"
        }
      ],
      "stateMutability": "view",
      "type": "function"
    },
    {
      "inputs": [
        {
          "internalType": "address",
          "name": "_yYearn",
          "type": "address"
        },
        {
          "internalType": "address",
          "name": "_sYearn",
          "type": "address"
        },
        {
          "internalType": "address",
          "name": "_pYearn",
          "type": "address"
        },
        {
          "components": [
            {
              "internalType": "uint16",
              "name": "minReferrals",
              "type": "uint16"
            },
            {
              "internalType": "uint32",
              "name": "timeWindow",
              "type": "uint32"
            },
            {
              "internalType": "uint16",
              "name": "rewardPercent",
              "type": "uint16"
            },
            {
              "internalType": "uint32",
              "name": "rewardDuration",
              "type": "uint32"
            },
            {
              "internalType": "uint8",
              "name": "rewardCapMultiplier",
              "type": "uint8"
            }
          ],
          "internalType": "struct YearnTogetherStaking.GoldenStarConfig",
          "name": "_goldenStarConfig",
          "type": "tuple"
        },
        {
          "internalType": "uint8",
          "name": "_maxReferralLevel",
          "type": "uint8"
        }
      ],
      "name": "initialize",
      "outputs": [],
      "stateMutability": "nonpayable",
      "type": "function"
    },
    {
      "inputs": [
        {
          "internalType": "address",
          "name": "",
          "type": "address"
        }
      ],
      "name": "isGoldenStar",
      "outputs": [
        {
          "internalType": "bool",
          "name": "",
          "type": "bool"
        }
      ],
      "stateMutability": "view",
      "type": "function"
    },
    {
      "inputs": [
        {
          "internalType": "address",
          "name": "user",
          "type": "address"
        },
        {
          "internalType": "address",
          "name": "root",
          "type": "address"
        },
        {
          "internalType": "uint8",
          "name": "depth",
          "type": "uint8"
        }
      ],
      "name": "isInReferralTree",
      "outputs": [
        {
          "internalType": "bool",
          "name": "",
          "type": "bool"
        }
      ],
      "stateMutability": "view",
      "type": "function"
    },
    {
      "inputs": [
        {
          "internalType": "address",
          "name": "",
          "type": "address"
        },
        {
          "internalType": "uint256",
          "name": "",
          "type": "uint256"
        }
      ],
      "name": "lastUnstakedAt",
      "outputs": [
        {
          "internalType": "uint256",
          "name": "",
          "type": "uint256"
        }
      ],
      "stateMutability": "view",
      "type": "function"
    },
    {
      "inputs": [],
      "name": "levelOneReferralRequirement",
      "outputs": [
        {
          "internalType": "uint8",
          "name": "",
          "type": "uint8"
        }
      ],
      "stateMutability": "view",
      "type": "function"
    },
    {
      "inputs": [],
      "name": "maxReferralLevel",
      "outputs": [
        {
          "internalType": "uint8",
          "name": "",
          "type": "uint8"
        }
      ],
      "stateMutability": "view",
      "type": "function"
    },
    {
      "inputs": [],
      "name": "maxStarLevel",
      "outputs": [
        {
          "internalType": "uint8",
          "name": "",
          "type": "uint8"
        }
      ],
      "stateMutability": "view",
      "type": "function"
    },
    {
      "inputs": [],
      "name": "nextPackageId",
      "outputs": [
        {
          "internalType": "uint16",
          "name": "",
          "type": "uint16"
        }
      ],
      "stateMutability": "view",
      "type": "function"
    },
    {
      "inputs": [],
      "name": "owner",
      "outputs": [
        {
          "internalType": "address",
          "name": "",
          "type": "address"
        }
      ],
      "stateMutability": "view",
      "type": "function"
    },
    {
      "inputs": [],
      "name": "pYearn",
      "outputs": [
        {
          "internalType": "contract IERC20",
          "name": "",
          "type": "address"
        }
      ],
      "stateMutability": "view",
      "type": "function"
    },
    {
      "inputs": [
        {
          "internalType": "uint256",
          "name": "",
          "type": "uint256"
        }
      ],
      "name": "packages",
      "outputs": [
        {
          "internalType": "uint16",
          "name": "id",
          "type": "uint16"
        },
        {
          "internalType": "uint16",
          "name": "durationYears",
          "type": "uint16"
        },
        {
          "internalType": "uint16",
          "name": "apr",
          "type": "uint16"
        },
        {
          "internalType": "bool",
          "name": "monthlyUnstake",
          "type": "bool"
        },
        {
          "internalType": "bool",
          "name": "isActive",
          "type": "bool"
        },
        {
          "internalType": "uint256",
          "name": "minStakeAmount",
          "type": "uint256"
        },
        {
          "internalType": "uint16",
          "name": "monthlyPrincipalReturnPercent",
          "type": "uint16"
        },
        {
          "internalType": "bool",
          "name": "monthlyAPRClaimable",
          "type": "bool"
        },
        {
          "internalType": "uint256",
          "name": "claimableInterval",
          "type": "uint256"
        },
        {
          "internalType": "uint256",
          "name": "stakeMultiple",
          "type": "uint256"
        }
      ],
      "stateMutability": "view",
      "type": "function"
    },
    {
      "inputs": [],
      "name": "pause",
      "outputs": [],
      "stateMutability": "nonpayable",
      "type": "function"
    },
    {
      "inputs": [],
      "name": "paused",
      "outputs": [
        {
          "internalType": "bool",
          "name": "",
          "type": "bool"
        }
      ],
      "stateMutability": "view",
      "type": "function"
    },
    {
      "inputs": [
        {
          "internalType": "address",
          "name": "",
          "type": "address"
        }
      ],
      "name": "pendingStarRewards",
      "outputs": [
        {
          "internalType": "uint256",
          "name": "goldenStarAmount",
          "type": "uint256"
        }
      ],
      "stateMutability": "view",
      "type": "function"
    },
    {
      "inputs": [],
      "name": "proxiableUUID",
      "outputs": [
        {
          "internalType": "bytes32",
          "name": "",
          "type": "bytes32"
        }
      ],
      "stateMutability": "view",
      "type": "function"
    },
    {
      "inputs": [
        {
          "internalType": "address",
          "name": "",
          "type": "address"
        },
        {
          "internalType": "address",
          "name": "",
          "type": "address"
        }
      ],
      "name": "referralEarnings",
      "outputs": [
        {
          "internalType": "uint256",
          "name": "",
          "type": "uint256"
        }
      ],
      "stateMutability": "view",
      "type": "function"
    },
    {
      "inputs": [
        {
          "internalType": "address",
          "name": "",
          "type": "address"
        },
        {
          "internalType": "uint256",
          "name": "",
          "type": "uint256"
        }
      ],
      "name": "referralHistory",
      "outputs": [
        {
          "internalType": "address",
          "name": "referee",
          "type": "address"
        },
        {
          "internalType": "uint256",
          "name": "timestamp",
          "type": "uint256"
        }
      ],
      "stateMutability": "view",
      "type": "function"
    },
    {
      "inputs": [
        {
          "internalType": "uint256",
          "name": "",
          "type": "uint256"
        }
      ],
      "name": "referralRewardTiers",
      "outputs": [
        {
          "internalType": "uint8",
          "name": "startLevel",
          "type": "uint8"
        },
        {
          "internalType": "uint8",
          "name": "endLevel",
          "type": "uint8"
        },
        {
          "internalType": "uint16",
          "name": "rewardPercent",
          "type": "uint16"
        },
        {
          "internalType": "address",
          "name": "rewardToken",
          "type": "address"
        }
      ],
      "stateMutability": "view",
      "type": "function"
    },
    {
      "inputs": [
        {
          "internalType": "address",
          "name": "",
          "type": "address"
        },
        {
          "internalType": "uint256",
          "name": "",
          "type": "uint256"
        }
      ],
      "name": "referrals",
      "outputs": [
        {
          "internalType": "address",
          "name": "",
          "type": "address"
        }
      ],
      "stateMutability": "view",
      "type": "function"
    },
    {
      "inputs": [
        {
          "internalType": "address",
          "name": "",
          "type": "address"
        }
      ],
      "name": "referrerOf",
      "outputs": [
        {
          "internalType": "address",
          "name": "",
          "type": "address"
        }
      ],
      "stateMutability": "view",
      "type": "function"
    },
    {
      "inputs": [],
      "name": "renounceOwnership",
      "outputs": [],
      "stateMutability": "nonpayable",
      "type": "function"
    },
    {
      "inputs": [],
      "name": "sYearn",
      "outputs": [
        {
          "internalType": "contract IERC20",
          "name": "",
          "type": "address"
        }
      ],
      "stateMutability": "view",
      "type": "function"
    },
    {
      "inputs": [
        {
          "internalType": "uint16",
          "name": "minReferrals",
          "type": "uint16"
        },
        {
          "internalType": "uint32",
          "name": "timeWindow",
          "type": "uint32"
        },
        {
          "internalType": "uint16",
          "name": "rewardPercent",
          "type": "uint16"
        },
        {
          "internalType": "uint32",
          "name": "rewardDuration",
          "type": "uint32"
        },
        {
          "internalType": "uint8",
          "name": "rewardCapMultiplier",
          "type": "uint8"
        }
      ],
      "name": "setGoldenStarConfig",
      "outputs": [],
      "stateMutability": "nonpayable",
      "type": "function"
    },
    {
      "inputs": [
        {
          "internalType": "uint8",
          "name": "_level",
          "type": "uint8"
        }
      ],
      "name": "setMaxReferralLevel",
      "outputs": [],
      "stateMutability": "nonpayable",
      "type": "function"
    },
    {
      "inputs": [
        {
          "internalType": "uint8",
          "name": "_maxStarLevel",
          "type": "uint8"
        }
      ],
      "name": "setMaxStarLevel",
      "outputs": [],
      "stateMutability": "nonpayable",
      "type": "function"
    },
    {
      "inputs": [
        {
          "components": [
            {
              "internalType": "uint8",
              "name": "startLevel",
              "type": "uint8"
            },
            {
              "internalType": "uint8",
              "name": "endLevel",
              "type": "uint8"
            },
            {
              "internalType": "uint16",
              "name": "rewardPercent",
              "type": "uint16"
            },
            {
              "internalType": "address",
              "name": "rewardToken",
              "type": "address"
            }
          ],
          "internalType": "struct YearnTogetherStaking.ReferralRewardTier[]",
          "name": "tiers",
          "type": "tuple[]"
        }
      ],
      "name": "setReferralRewardTiers",
      "outputs": [],
      "stateMutability": "nonpayable",
      "type": "function"
    },
    {
      "inputs": [
        {
          "components": [
            {
              "internalType": "uint8",
              "name": "level",
              "type": "uint8"
            },
            {
              "internalType": "uint16",
              "name": "rewardPercent",
              "type": "uint16"
            }
          ],
          "internalType": "struct YearnTogetherStaking.StarLevel[]",
          "name": "tiers",
          "type": "tuple[]"
        }
      ],
      "name": "setStarLevelTiers",
      "outputs": [],
      "stateMutability": "nonpayable",
      "type": "function"
    },
    {
      "inputs": [
        {
          "internalType": "address",
          "name": "_executor",
          "type": "address"
        }
      ],
      "name": "setStarTierExecutor",
      "outputs": [],
      "stateMutability": "nonpayable",
      "type": "function"
    },
    {
      "inputs": [
        {
          "internalType": "uint16",
          "name": "packageId",
          "type": "uint16"
        },
        {
          "internalType": "address[]",
          "name": "tokens",
          "type": "address[]"
        },
        {
          "internalType": "uint256[]",
          "name": "amounts",
          "type": "uint256[]"
        },
        {
          "internalType": "address",
          "name": "referrer",
          "type": "address"
        }
      ],
      "name": "stake",
      "outputs": [],
      "stateMutability": "nonpayable",
      "type": "function"
    },
    {
      "inputs": [
        {
          "internalType": "address",
          "name": "",
          "type": "address"
        },
        {
          "internalType": "uint8",
          "name": "",
          "type": "uint8"
        }
      ],
      "name": "starLevelActivation",
      "outputs": [
        {
          "internalType": "uint256",
          "name": "",
          "type": "uint256"
        }
      ],
      "stateMutability": "view",
      "type": "function"
    },
    {
      "inputs": [
        {
          "internalType": "address",
          "name": "",
          "type": "address"
        },
        {
          "internalType": "uint8",
          "name": "",
          "type": "uint8"
        }
      ],
      "name": "starLevelClaimed",
      "outputs": [
        {
          "internalType": "uint256",
          "name": "",
          "type": "uint256"
        }
      ],
      "stateMutability": "view",
      "type": "function"
    },
    {
      "inputs": [
        {
          "internalType": "address",
          "name": "",
          "type": "address"
        },
        {
          "internalType": "uint8",
          "name": "",
          "type": "uint8"
        }
      ],
      "name": "starLevelEarnings",
      "outputs": [
        {
          "internalType": "uint256",
          "name": "",
          "type": "uint256"
        }
      ],
      "stateMutability": "view",
      "type": "function"
    },
    {
      "inputs": [
        {
          "internalType": "uint256",
          "name": "",
          "type": "uint256"
        }
      ],
      "name": "starLevelTiers",
      "outputs": [
        {
          "internalType": "uint8",
          "name": "level",
          "type": "uint8"
        },
        {
          "internalType": "uint16",
          "name": "rewardPercent",
          "type": "uint16"
        }
      ],
      "stateMutability": "view",
      "type": "function"
    },
    {
      "inputs": [],
      "name": "starTierExecutor",
      "outputs": [
        {
          "internalType": "address",
          "name": "",
          "type": "address"
        }
      ],
      "stateMutability": "view",
      "type": "function"
    },
    {
      "inputs": [],
      "name": "subLevelReferralRequirement",
      "outputs": [
        {
          "internalType": "uint8",
          "name": "",
          "type": "uint8"
        }
      ],
      "stateMutability": "view",
      "type": "function"
    },
    {
      "inputs": [
        {
          "internalType": "address",
          "name": "newOwner",
          "type": "address"
        }
      ],
      "name": "transferOwnership",
      "outputs": [],
      "stateMutability": "nonpayable",
      "type": "function"
    },
    {
      "inputs": [],
      "name": "unpause",
      "outputs": [],
      "stateMutability": "nonpayable",
      "type": "function"
    },
    {
      "inputs": [
        {
          "internalType": "uint256",
          "name": "stakeIndex",
          "type": "uint256"
        }
      ],
      "name": "unstake",
      "outputs": [],
      "stateMutability": "nonpayable",
      "type": "function"
    },
    {
      "inputs": [
        {
          "internalType": "uint16",
          "name": "packageId",
          "type": "uint16"
        },
        {
          "internalType": "uint16",
          "name": "durationYears",
          "type": "uint16"
        },
        {
          "internalType": "uint16",
          "name": "apr",
          "type": "uint16"
        },
        {
          "internalType": "bool",
          "name": "monthlyUnstake",
          "type": "bool"
        },
        {
          "internalType": "bool",
          "name": "isActive",
          "type": "bool"
        },
        {
          "internalType": "uint256",
          "name": "minStakeAmount",
          "type": "uint256"
        },
        {
          "internalType": "uint16",
          "name": "monthlyPrincipalReturnPercent",
          "type": "uint16"
        },
        {
          "internalType": "bool",
          "name": "monthlyAPRClaimable",
          "type": "bool"
        },
        {
          "internalType": "uint256",
          "name": "claimableInterval",
          "type": "uint256"
        },
        {
          "internalType": "uint256",
          "name": "stakeMultiple",
          "type": "uint256"
        }
      ],
      "name": "updatePackage",
      "outputs": [],
      "stateMutability": "nonpayable",
      "type": "function"
    },
    {
      "inputs": [
        {
          "internalType": "address",
          "name": "newImplementation",
          "type": "address"
        }
      ],
      "name": "upgradeTo",
      "outputs": [],
      "stateMutability": "nonpayable",
      "type": "function"
    },
    {
      "inputs": [
        {
          "internalType": "address",
          "name": "newImplementation",
          "type": "address"
        },
        {
          "internalType": "bytes",
          "name": "data",
          "type": "bytes"
        }
      ],
      "name": "upgradeToAndCall",
      "outputs": [],
      "stateMutability": "payable",
      "type": "function"
    },
    {
      "inputs": [
        {
          "internalType": "address",
          "name": "",
          "type": "address"
        },
        {
          "internalType": "uint256",
          "name": "",
          "type": "uint256"
        }
      ],
      "name": "userRewardTiers",
      "outputs": [
        {
          "internalType": "uint8",
          "name": "startLevel",
          "type": "uint8"
        },
        {
          "internalType": "uint8",
          "name": "endLevel",
          "type": "uint8"
        },
        {
          "internalType": "uint16",
          "name": "rewardPercent",
          "type": "uint16"
        },
        {
          "internalType": "address",
          "name": "rewardToken",
          "type": "address"
        }
      ],
      "stateMutability": "view",
      "type": "function"
    },
    {
      "inputs": [
        {
          "internalType": "address",
          "name": "",
          "type": "address"
        }
      ],
      "name": "userStakeCounts",
      "outputs": [
        {
          "internalType": "uint256",
          "name": "",
          "type": "uint256"
        }
      ],
      "stateMutability": "view",
      "type": "function"
    },
    {
      "inputs": [
        {
          "internalType": "address",
          "name": "",
          "type": "address"
        },
        {
          "internalType": "uint256",
          "name": "",
          "type": "uint256"
        },
        {
          "internalType": "uint256",
          "name": "",
          "type": "uint256"
        }
      ],
      "name": "userStakeTokenAmounts",
      "outputs": [
        {
          "internalType": "address",
          "name": "token",
          "type": "address"
        },
        {
          "internalType": "uint256",
          "name": "amount",
          "type": "uint256"
        }
      ],
      "stateMutability": "view",
      "type": "function"
    },
    {
      "inputs": [
        {
          "internalType": "address",
          "name": "",
          "type": "address"
        },
        {
          "internalType": "uint256",
          "name": "",
          "type": "uint256"
        }
      ],
      "name": "userStakes",
      "outputs": [
        {
          "internalType": "uint256",
          "name": "totalStaked",
          "type": "uint256"
        },
        {
          "internalType": "uint256",
          "name": "claimedAPR",
          "type": "uint256"
        },
        {
          "internalType": "uint256",
          "name": "withdrawnPrincipal",
          "type": "uint256"
        },
        {
          "internalType": "uint40",
          "name": "startTime",
          "type": "uint40"
        },
        {
          "internalType": "uint40",
          "name": "lastClaimedAt",
          "type": "uint40"
        },
        {
          "internalType": "uint16",
          "name": "packageId",
          "type": "uint16"
        },
        {
          "internalType": "bool",
          "name": "isFullyUnstaked",
          "type": "bool"
        }
      ],
      "stateMutability": "view",
      "type": "function"
    },
    {
      "inputs": [
        {
          "internalType": "address",
          "name": "",
          "type": "address"
        }
      ],
      "name": "userStarLevel",
      "outputs": [
        {
          "internalType": "uint8",
          "name": "",
          "type": "uint8"
        }
      ],
      "stateMutability": "view",
      "type": "function"
    },
    {
      "inputs": [
        {
          "internalType": "address",
          "name": "",
          "type": "address"
        }
      ],
      "name": "userTotalStaked",
      "outputs": [
        {
          "internalType": "uint256",
          "name": "",
          "type": "uint256"
        }
      ],
      "stateMutability": "view",
      "type": "function"
    },
    {
      "inputs": [
        {
          "internalType": "uint256",
          "name": "",
          "type": "uint256"
        },
        {
          "internalType": "uint256",
          "name": "",
          "type": "uint256"
        }
      ],
      "name": "validCompositions",
      "outputs": [
        {
          "internalType": "uint8",
          "name": "",
          "type": "uint8"
        }
      ],
      "stateMutability": "view",
      "type": "function"
    },
    {
      "inputs": [],
      "name": "validCompositionsLength",
      "outputs": [
        {
          "internalType": "uint256",
          "name": "",
          "type": "uint256"
        }
      ],
      "stateMutability": "view",
      "type": "function"
    },
    {
      "inputs": [
        {
          "internalType": "address",
          "name": "",
          "type": "address"
        },
        {
          "internalType": "uint256",
          "name": "",
          "type": "uint256"
        }
      ],
      "name": "withdrawnPerStake",
      "outputs": [
        {
          "internalType": "uint256",
          "name": "",
          "type": "uint256"
        }
      ],
      "stateMutability": "view",
      "type": "function"
    },
    {
      "inputs": [],
      "name": "yYearn",
      "outputs": [
        {
          "internalType": "contract IERC20",
          "name": "",
          "type": "address"
        }
      ],
      "stateMutability": "view",
      "type": "function"
    }
  ],
  "bytecode": "0x60a06040523060805234801561001457600080fd5b50608051615cb06200004d600039600081816123ae015281816123ee015281816125d50152818161261501526126a80152615cb06000f3fe6080604052600436106104265760003560e01c8063719de1ef11610229578063d150c5881161012e578063e697b5d8116100b6578063f68fbe121161007a578063f68fbe121461111b578063fa81d3561461113b578063fb4cd7401461115b578063fca1978c1461117b578063ff9df99f1461119057600080fd5b8063e697b5d814611075578063ec10aa2114611095578063edb07430146110b5578063f2fde38b146110d5578063f67c3deb146110f557600080fd5b8063d8f2580b116100fd578063d8f2580b14610f21578063da02678d14610fa8578063de1ed7c914610fe1578063deb5a0c21461101a578063e3ffceaf1461103b57600080fd5b8063d150c58814610e86578063d1beaa4c14610ea6578063d21cacdf14610ec7578063d7da9e4f14610efe57600080fd5b8063a8c3aa40116101b1578063bd460ab611610180578063bd460ab614610d1c578063bf58fe6214610d31578063c216212a14610d47578063c311f64714610e2c578063c415b95c14610e6557600080fd5b8063a8c3aa4014610c4c578063af29ae7414610c6c578063b5d5b5fa14610c8c578063b88bfd2914610d0557600080fd5b80638da5cb5b116101f85780638da5cb5b14610b885780639232755614610ba657806395f075e114610bd3578063978a3ab414610c0c5780639e0dd4e914610c2c57600080fd5b8063719de1ef14610af45780637c00995614610b225780638456cb5914610b425780638a518bf114610b5757600080fd5b806341a0894d1161032f57806352d1902d116102b75780635c975abb116102865780635c975abb14610a495780635ca61a6b14610a615780635e859fc314610a83578063605c272114610aa3578063715018a614610adf57600080fd5b806352d1902d14610993578063561700cb146109a85780635674b2d8146109e15780635be6430614610a1457600080fd5b80634b453b66116102fe5780634b453b66146108d85780634c6d101e146108f85780634e4634bd146109265780634f1ef2861461095f57806352c6effd1461097257600080fd5b806341a0894d1461082657806346186f2314610853578063473b9c791461086e57806348c5db481461089f57600080fd5b80632acd5d47116103b25780633659cfe6116103815780633659cfe614610757578063366ab5b51461077757806337280946146107975780633c25c28b146107d05780633f4ba83a1461081157600080fd5b80632acd5d47146105f85780632e17de78146106c0578063320bb325146106e057806333662dc41461073757600080fd5b80630d2fcb5d116103f95780630d2fcb5d1461052257806317f1a6fe1461055e578063233b8aa21461057957806325f9f79d146105b85780632963d65d146105d857600080fd5b806301f8c0e01461042b57806302eb1540146104b957806305eaab4b146104eb57806306e4941914610502575b600080fd5b34801561043757600080fd5b50610131546104779061ffff8082169163ffffffff620100008204811692600160301b83041691600160401b81049091169060ff600160601b9091041685565b6040805161ffff968716815263ffffffff9586166020820152959093169285019290925291909116606083015260ff16608082015260a0015b60405180910390f35b3480156104c557600080fd5b50610135546104d990610100900460ff1681565b60405160ff90911681526020016104b0565b3480156104f757600080fd5b506105006111b0565b005b34801561050e57600080fd5b5061050061051d366004614f1f565b611379565b34801561052e57600080fd5b5061055061053d366004614fbb565b61013e6020526000908152604090205481565b6040519081526020016104b0565b34801561056a57600080fd5b50610135546104d99060ff1681565b34801561058557600080fd5b50610599610594366004614fd8565b6115a2565b604080516001600160a01b0390931683526020830191909152016104b0565b3480156105c457600080fd5b506105006105d3366004615069565b6115f7565b3480156105e457600080fd5b506105006105f3366004615112565b611bfa565b34801561060457600080fd5b5061067e6106133660046151e7565b6001600160a01b0391909116600090815261013c6020908152604080832093835292905220805460018201546002830154600390930154919390929164ffffffffff80821692600160281b830490911691600160501b810461ffff1691600160601b90910460ff1690565b6040805197885260208801969096529486019390935264ffffffffff918216606086015216608084015261ffff1660a0830152151560c082015260e0016104b0565b3480156106cc57600080fd5b506105006106db366004615213565b611f3e565b3480156106ec57600080fd5b506107006106fb366004615213565b6122a6565b6040805160ff958616815294909316602085015261ffff909116918301919091526001600160a01b031660608201526080016104b0565b34801561074357600080fd5b506105506107523660046151e7565b6122ef565b34801561076357600080fd5b50610500610772366004614fbb565b6123a4565b34801561078357600080fd5b5061050061079236600461522c565b612480565b3480156107a357600080fd5b5061012f546107b8906001600160a01b031681565b6040516001600160a01b0390911681526020016104b0565b3480156107dc57600080fd5b506108016107eb366004614fbb565b6101426020526000908152604090205460ff1681565b60405190151581526020016104b0565b34801561081d57600080fd5b506105006124d0565b34801561083257600080fd5b50610846610841366004614fbb565b6124e2565b6040516104b09190615249565b34801561085f57600080fd5b5061012d546104d99060ff1681565b34801561087a57600080fd5b506104d9610889366004614fbb565b6101446020526000908152604090205460ff1681565b3480156108ab57600080fd5b506105506108ba366004615296565b61014360209081526000928352604080842090915290825290205481565b3480156108e457600080fd5b506108016108f33660046152cf565b612559565b34801561090457600080fd5b50610550610913366004614fbb565b6101486020526000908152604090205481565b34801561093257600080fd5b506105506109413660046151e7565b61013f60209081526000928352604080842090915290825290205481565b61050061096d36600461531a565b6125cb565b34801561097e57600080fd5b5061012e546107b8906001600160a01b031681565b34801561099f57600080fd5b5061055061269b565b3480156109b457600080fd5b506105506109c33660046151e7565b61014a60209081526000928352604080842090915290825290205481565b3480156109ed57600080fd5b50610a016109fc36600461522c565b61274e565b60405161ffff90911681526020016104b0565b348015610a2057600080fd5b50610550610a2f3660046153c2565b61ffff166000908152610138602052604090206004015490565b348015610a5557600080fd5b5060975460ff16610801565b348015610a6d57600080fd5b50610a766127c8565b6040516104b0919061541e565b348015610a8f57600080fd5b50610500610a9e366004615213565b612880565b348015610aaf57600080fd5b50610ac3610abe366004615213565b612ea8565b6040805160ff909316835261ffff9091166020830152016104b0565b348015610aeb57600080fd5b50610500612ed7565b348015610b0057600080fd5b50610550610b0f366004614fbb565b6101406020526000908152604090205481565b348015610b2e57600080fd5b50610500610b3d366004615492565b612ee9565b348015610b4e57600080fd5b506105006130ec565b348015610b6357600080fd5b50610550610b72366004614fbb565b61014b6020526000908152604090206005015481565b348015610b9457600080fd5b506065546001600160a01b03166107b8565b348015610bb257600080fd5b50610bc6610bc1366004614fbb565b6130fc565b6040516104b0919061553f565b348015610bdf57600080fd5b50610550610bee366004615570565b61014760209081526000928352604080842090915290825290205481565b348015610c1857600080fd5b50610550610c273660046153c2565b61314f565b348015610c3857600080fd5b50610700610c473660046151e7565b61319f565b348015610c5857600080fd5b50610500610c67366004614fbb565b6131f5565b348015610c7857600080fd5b50610500610c8736600461559e565b613248565b348015610c9857600080fd5b5061067e610ca73660046151e7565b61013c60209081526000928352604080842090915290825290208054600182015460028301546003909301549192909164ffffffffff80821691600160281b810490911690600160501b810461ffff1690600160601b900460ff1687565b348015610d1157600080fd5b506105506101365481565b348015610d2857600080fd5b5061050061344c565b348015610d3d57600080fd5b5061013254610550565b348015610d5357600080fd5b50610dcb610d62366004615213565b610138602052600090815260409020805460018201546002830154600384015460049094015461ffff8085169562010000808704831696600160201b810484169660ff600160301b8304811697600160381b90930481169691958316949390920490911691908a565b6040805161ffff9b8c168152998b1660208b0152978a16978901979097529415156060880152921515608087015260a086019190915290941660c084015292151560e0830152610100820192909252610120810191909152610140016104b0565b348015610e3857600080fd5b50610550610e47366004615570565b61014560209081526000928352604080842090915290825290205481565b348015610e7157600080fd5b50610137546107b8906001600160a01b031681565b348015610e9257600080fd5b50610500610ea1366004615613565b6135d5565b348015610eb257600080fd5b50610135546104d99062010000900460ff1681565b348015610ed357600080fd5b506107b8610ee2366004614fbb565b61013a602052600090815260409020546001600160a01b031681565b348015610f0a57600080fd5b5061012f54610a0190600160a01b900461ffff1681565b348015610f2d57600080fd5b50610dcb610f3c3660046153c2565b61ffff90811660009081526101386020526040902080546001820154600283015460038401546004909401548386169662010000808604881697600160201b870481169760ff600160301b8904811698600160381b900481169796928316959390920490911692909190565b348015610fb457600080fd5b50610550610fc33660046156ac565b61014160209081526000928352604080842090915290825290205481565b348015610fed57600080fd5b50610550610ffc366004615570565b61014660209081526000928352604080842090915290825290205481565b34801561102657600080fd5b50610130546107b8906001600160a01b031681565b34801561104757600080fd5b50610550611056366004614fbb565b6001600160a01b0316600090815261014b602052604090206005015490565b34801561108157600080fd5b506107b86110903660046151e7565b613890565b3480156110a157600080fd5b506105006110b03660046156da565b6138c9565b3480156110c157600080fd5b506105006110d036600461522c565b613a6e565b3480156110e157600080fd5b506105006110f0366004614fbb565b613afc565b34801561110157600080fd5b5061012d546107b89061010090046001600160a01b031681565b34801561112757600080fd5b506105996111363660046151e7565b613b72565b34801561114757600080fd5b506104d961115636600461573d565b613bb9565b34801561116757600080fd5b5061050061117636600461575f565b613c09565b34801561118757600080fd5b50610500613db4565b34801561119c57600080fd5b506105506111ab366004614fbb565b613f8a565b6111b8613fbf565b60006111c2614d23565b6040805160608101825261012d546001600160a01b036101009091048116825261012e548116602083015261012f54169181019190915260005b60038160ff161015611306576000828260ff166003811061121f5761121f6157cc565b60209081029190910151336000908152610141835260408082206001600160a01b0384168352909352919091205490915080156112fc57336000818152610141602090815260408083206001600160a01b03871680855292528220919091556112889183614005565b80858460ff166003811061129e5761129e6157cc565b60200201526112ad81876157f8565b6040805160008152602081018490526001600160a01b03851681830152905191975033917f62172fdd5539b6980f0d71ffb076e09ee509c8aeffb0f9843337ebd99e0f07ad9181900360600190a25b50506001016111fc565b50826000036113285760405163fbc8013360e01b815260040160405180910390fd5b815160208084015160408086015181519485529284019190915282015233907f510ecda15cc254e345563b4fdd696138cb7c399fbc16f02591030a14bfc5b6ed9060600160405180910390a2505050565b611381614064565b604081015160208201518251611397919061580b565b6113a1919061580b565b60ff166064146113c45760405163d82f8b1d60e01b815260040160405180910390fd5b60005b610132548110156114e757600061013282815481106113e8576113e86157cc565b6000918252602082200191508390602002015160ff1681600081548110611411576114116157cc565b60009182526020918290209181049091015460ff601f9092166101000a9004161480156114795750826001602002015160ff1681600181548110611457576114576157cc565b60009182526020918290209181049091015460ff601f9092166101000a900416145b80156114c05750826002602002015160ff168160028154811061149e5761149e6157cc565b60009182526020918290209181049091015460ff601f9092166101000a900416145b156114de57604051630ad3092960e31b815260040160405180910390fd5b506001016113c7565b50610132604051806060016040528083600060038110611509576115096157cc565b6020908102919091015160ff90811683528582015181168383015260408087015190911692019190915282546001810184556000938452922061154f9201906003614d41565b506101325461156090600190615824565b7f57ee6be1dcd386233308c102882da590f97ac85389bde59b4237e4a94b84fa6d61158a836140be565b6040516115979190615837565b60405180910390a250565b61013d60205282600052604060002060205281600052604060002081815481106115cb57600080fd5b6000918252602090912060029091020180546001909101546001600160a01b0390911693509150839050565b6115ff613fbf565b83821461161f576040516371c13d0560e01b815260040160405180910390fd5b61ffff86166000908152610138602052604090208054600160381b900460ff1661165c5760405163f0518c1b60e01b815260040160405180910390fd5b6000611666614d23565b33600090815261013e60205260408120805490826116838361584a565b91905055905060005b888110156118585760008a8a838181106116a8576116a86157cc565b90506020020160208101906116bd9190614fbb565b905060008989848181106116d3576116d36157cc565b61012d54602090910292909201359250506001600160a01b038381166101009092041614801590611713575061012e546001600160a01b03838116911614155b801561172e575061012f546001600160a01b03838116911614155b1561175c57604051635f8b555b60e11b81526001600160a01b03831660048201526024015b60405180910390fd5b6117716001600160a01b03831633308461413a565b33600090815261013d60209081526040808320878452825280832081518083019092526001600160a01b03868116808452838501878152835460018082018655948852959096209351600290950290930180546001600160a01b031916948216949094178455935192019190915561012d546101009004909116900361180057808560005b602002015261183f565b61012e546001600160a01b039081169083160361182057808560016117f6565b61012f546001600160a01b039081169083160361183f57604085018190525b61184981876157f8565b9550826001019250505061168c565b50836001015483101561187e57604051636d8481ad60e01b815260040160405180910390fd5b600484015461188d9084615879565b156118ab5760405163c39baf0160e01b815260040160405180910390fd5b6118b58284614179565b6118d25760405163055f221360e21b815260040160405180910390fd5b6040518060e0016040528084815260200160008152602001600081526020014264ffffffffff1681526020014264ffffffffff1681526020018b61ffff1681526020016000151581525061013c6000336001600160a01b03166001600160a01b03168152602001908152602001600020600083815260200190815260200160002060008201518160000155602082015181600101556040820151816002015560608201518160030160006101000a81548164ffffffffff021916908364ffffffffff16021790555060808201518160030160056101000a81548164ffffffffff021916908364ffffffffff16021790555060a082015181600301600a6101000a81548161ffff021916908361ffff16021790555060c082015181600301600c6101000a81548160ff02191690831515021790555090505060006001600160a01b0316856001600160a01b031614158015611a3557506001600160a01b0385163314155b8015611a58575033600090815261013a60205260409020546001600160a01b0316155b15611b1d5733600081815261013a6020908152604080832080546001600160a01b03199081166001600160a01b038c811691821790935580865261013b85528386208054600181810183559188528688200180548416891790558187526101498652848720855180870187528381524281890190815282548085018455928a529789209051600290920201805490941694169390931782559351910155519092917fc83a612551ba072d036d685c61e17dd39012a62318571e69605a9bc00d60dcf291a35b336000908152610140602052604081208054859290611b3d9084906157f8565b90915550506040805161ffff8c1681526020810185905290810182905233907ff6204c86f8efdcbefa50b76691918f0d3227a0820aad37841702b9cdd2811a699060600160405180910390a26000600189148015611bd9575061012d5461010090046001600160a01b03168a8a600081611bb957611bb96157cc565b9050602002016020810190611bce9190614fbb565b6001600160a01b0316145b15611be2575060015b611bed3385836143bc565b5050505050505050505050565b600054610100900460ff1615808015611c1a5750600054600160ff909116105b80611c345750303b158015611c34575060005460ff166001145b611c975760405162461bcd60e51b815260206004820152602e60248201527f496e697469616c697a61626c653a20636f6e747261637420697320616c72656160448201526d191e481a5b9a5d1a585b1a5e995960921b6064820152608401611753565b6000805460ff191660011790558015611cba576000805461ff0019166101001790555b611cc2614634565b611cca614663565b611cd2614692565b611cda6146c1565b61012d80546001600160a01b0380891661010002610100600160a81b03199092169190911790915561012e80548783166001600160a01b03199182161790915561012f80549287169282169290921790915561013580546205020562ffffff1990911617905560006101365561013780549091163317905560ff821615801590611d68575060328260ff1611155b611d8557604051635f601b6560e11b815260040160405180910390fd5b61012d805460ff191660ff8416179055825161ffff16600003611dbb57604051637aec8b6560e01b815260040160405180910390fd5b826020015163ffffffff16600003611de657604051632cb129b760e01b815260040160405180910390fd5b826040015161ffff16600003611e0f57604051631782a52560e21b815260040160405180910390fd5b826060015163ffffffff16600003611e3a5760405163fdf3a66d60e01b815260040160405180910390fd5b826080015160ff16600003611e6257604051637bac462d60e11b815260040160405180910390fd5b82516101318054602086015160408701516060880151608089015161ffff96871665ffffffffffff19909516949094176201000063ffffffff94851602176bffffffffffff0000000000001916600160301b969092169590950263ffffffff60401b191617600160401b91909416029290921760ff60601b1916600160601b60ff909316929092029190911790558015611f36576000805461ff0019169055604051600181527f7f26b83ff96e1f2b6a682f133852f6798a09c465da95921460cefb38474024989060200160405180910390a15b505050505050565b611f46613fbf565b611f4e6146e8565b33600090815261013c60209081526040808320848452825280832060038082015461ffff600160501b82048116875261013886529584902084516101408101865281548089168252620100008082048a1698830198909852600160201b810489169682019690965260ff600160301b8704811615156060830152600160381b909604861615156080820152600182015460a0820152600282015497881660c0820152959096048416151560e08601529085015461010085015260049094015461012084015292600160601b9004161561203a57604051636c18a98960e11b815260040160405180910390fd5b815460028301546060830151600090801561205d575060008460c0015161ffff16115b1561210557600385015460009062278d00906120809064ffffffffff1642615824565b61208a919061588d565b905060008560200151600c61209f91906158a1565b61ffff169050808211156120b1578091505b6000612710838860c0015161ffff16886120cb91906158c7565b6120d591906158c7565b6120df919061588d565b9050858111156120ec5750845b84811115612101576120fe8582615824565b93505b5050505b6000846020015161ffff166301e1338061211f91906158de565b600387015461213b9163ffffffff169064ffffffffff166158fe565b64ffffffffff1690508042106121705760006121578486615824565b60038801805460ff60601b1916600160601b1790559250505b816000036121915760405163422f6e3560e11b815260040160405180910390fd5b61012d546040516370a0823160e01b8152306004820152839161010090046001600160a01b0316906370a0823190602401602060405180830381865afa1580156121df573d6000803e3d6000fd5b505050506040513d601f19601f82011682018060405250810190612203919061591c565b101561222257604051631c98f7c560e31b815260040160405180910390fd5b8186600201600082825461223691906157f8565b909155505061012d546122589061010090046001600160a01b03163384614005565b604080518881526020810184905233917f7fc4727e062e336010f2c282598ef5f14facb3de68cf8195c2f23e1454b2b74e91015b60405180910390a25050505050506122a360018055565b50565b61013481815481106122b757600080fd5b60009182526020909120015460ff80821692506101008204169062010000810461ffff1690600160201b90046001600160a01b031684565b6001600160a01b038216600090815261013c602090815260408083208484528252808320815160e0810183528154815260018201548185015260028201548184015260039182015464ffffffffff8082166060840152600160281b8204811660808401908152600160501b830461ffff1660a08501819052600160601b90930460ff16151560c08501529187526101389095529285209091015491519092612399918391166157f8565b925050505b92915050565b6001600160a01b037f00000000000000000000000000000000000000000000000000000000000000001630036123ec5760405162461bcd60e51b815260040161175390615935565b7f00000000000000000000000000000000000000000000000000000000000000006001600160a01b0316612435600080516020615c34833981519152546001600160a01b031690565b6001600160a01b03161461245b5760405162461bcd60e51b815260040161175390615981565b61246481614747565b604080516000808252602082019092526122a39183919061474f565b612488614064565b60ff8116158061249b575060328160ff16115b156124b95760405163073e352360e41b815260040160405180910390fd5b61012d805460ff191660ff92909216919091179055565b6124d8614064565b6124e06148ba565b565b6001600160a01b038116600090815261013b602090815260409182902080548351818402810184019094528084526060939283018282801561254d57602002820191906000526020600020905b81546001600160a01b0316815260019091019060200180831161252f575b50505050509050919050565b600082815b8360ff168160ff1610156125bd576001600160a01b03918216600090815261013a60205260409020549091169081156125bd57856001600160a01b0316826001600160a01b0316036125b5576001925050506125c4565b60010161255e565b5060009150505b9392505050565b6001600160a01b037f00000000000000000000000000000000000000000000000000000000000000001630036126135760405162461bcd60e51b815260040161175390615935565b7f00000000000000000000000000000000000000000000000000000000000000006001600160a01b031661265c600080516020615c34833981519152546001600160a01b031690565b6001600160a01b0316146126825760405162461bcd60e51b815260040161175390615981565b61268b82614747565b6126978282600161474f565b5050565b6000306001600160a01b037f0000000000000000000000000000000000000000000000000000000000000000161461273b5760405162461bcd60e51b815260206004820152603860248201527f555550535570677261646561626c653a206d757374206e6f742062652063616c60448201527f6c6564207468726f7567682064656c656761746563616c6c00000000000000006064820152608401611753565b50600080516020615c3483398151915290565b600060ff8216158061276f57506101355460ff620100009091048116908316115b1561278c57604051627c075360e91b815260040160405180910390fd5b61013361279a6001846159cd565b60ff16815481106127ad576127ad6157cc565b600091825260209091200154610100900461ffff1692915050565b6060610132805480602002602001604051908101604052809291908181526020016000905b828210156128775760008481526020908190208301805460408051828502810185019091528181529283018282801561286357602002820191906000526020600020906000905b825461010083900a900460ff168152602060019283018181049485019490930390920291018084116128345790505b5050505050815260200190600101906127ed565b50505050905090565b612888613fbf565b6128906146e8565b33600090815261013c60209081526040808320848452825280832060038082015461ffff600160501b909104811686526101388552948390208351610140810185528154808816825262010000808204891697830197909752600160201b810488169582019590955260ff600160301b8604811615156060830152600160381b909504851615156080820152600182015460a0820152600282015496871660c08201529490950490921615801560e085015291840154610100840152600490930154610120830152612c5d576101008101516020820151600090829061297e9061ffff166301e133806158de565b63ffffffff1661298e919061588d565b600385015490915060009083906129b69064ffffffffff80821691600160281b9004166159e6565b64ffffffffff166129c7919061588d565b90508181106129e95760405163cad25d5160e01b815260040160405180910390fd5b60038501546000908490612a0b90600160281b900464ffffffffff1642615824565b612a15919061588d565b905080600003612a3857604051633b65547360e01b815260040160405180910390fd5b6000612a448385615824565b905080821115612a52578091505b6000612710600c886040015161ffff168a60000154612a7191906158c7565b612a7b919061588d565b612a85919061588d565b90506000612a9384836158c7565b905080600003612ab657604051631d70d42560e11b815260040160405180910390fd5b60006127106101365483612aca91906158c7565b612ad4919061588d565b90506000612ae28284615824565b905080600003612b055760405163d475d09d60e01b815260040160405180910390fd5b828b6001016000828254612b1991906157f8565b909155505060038b01805469ffffffffff00000000001916600160281b4264ffffffffff1602179055612b4c86856158c7565b6101436000336001600160a01b03166001600160a01b0316815260200190815260200160002060008d600301600a9054906101000a900461ffff1661ffff1661ffff1681526020019081526020016000206000828254612bac91906157f8565b90915550508115612bdb576101375461012d54612bdb916001600160a01b036101009092048216911684614005565b61012d54612bf89061010090046001600160a01b03163383614005565b60038b0154604080518e8152600160501b90920461ffff16602083015281018590526060810182905233907e6a6bcba8deac6c29494b3403bb26a2dbaee3b0a9d326e0778c3a78ce870ea29060800160405180910390a2505050505050505050612e9d565b6000816020015161ffff166301e13380612c7791906158de565b6003840154612c939163ffffffff169064ffffffffff166158fe565b64ffffffffff16905080421015612cbc576040516255ae9f60e01b815260040160405180910390fd5b6003830154600160281b900464ffffffffff168111612cee5760405163cad25d5160e01b815260040160405180910390fd5b6000612710836040015161ffff168560000154612d0b91906158c7565b612d15919061588d565b905080600003612d3857604051631d70d42560e11b815260040160405180910390fd5b60006127106101365483612d4c91906158c7565b612d56919061588d565b90506000612d648284615824565b905080600003612d875760405163d475d09d60e01b815260040160405180910390fd5b82866001016000828254612d9b91906157f8565b909155505060038601805469ffffffffff00000000001916600160281b4264ffffffffff1602179081905533600090815261014360209081526040808320600160501b90940461ffff1683529290529081208054859290612dfd9084906157f8565b90915550508115612e2c576101375461012d54612e2c916001600160a01b036101009092048216911684614005565b61012d54612e499061010090046001600160a01b03163383614005565b600386015460408051898152600160501b90920461ffff16602083015281018490526060810182905233907e6a6bcba8deac6c29494b3403bb26a2dbaee3b0a9d326e0778c3a78ce870ea29060800161228c565b50506122a360018055565b6101338181548110612eb957600080fd5b60009182526020909120015460ff81169150610100900461ffff1682565b612edf614064565b6124e0600061490c565b612ef1614064565b61012f5461ffff600160a01b9091048116908b1610612f23576040516312d439cb60e11b815260040160405180910390fd5b868015612f32575061ffff8416155b15612f5057604051633f5bec8b60e21b815260040160405180910390fd5b80600003612f715760405163c39baf0160e01b815260040160405180910390fd5b604080516101408101825261ffff808d168083528c821660208085019182528d84168587019081528d1515606087019081528d15156080880190815260a088018e81528d881660c08a019081528d151560e08b019081526101008b018e81526101208c018e815260008b8152610138909952978d90209b518c5499519751965195511515600160381b0267ff0000000000000019961515600160301b0266ff00000000000019988e16600160201b029890981666ffffff0000000019998e166201000090810263ffffffff19909d16938f16939093179b909b179890981699909917959095179390931694909417895551600189015591516002880180549351151590950262ffffff199093169616959095171790915591516003840155905160049092019190915590517e8716571915a92e1f797df5bd8c9607cde40b0318c3859525b3669cf9116480906130d8908c908c908c908c908c908c908c908c908c90615a04565b60405180910390a250505050505050505050565b6130f4614064565b6124e061495e565b613104614de7565b6001600160a01b038216600090815261014b602052604090819020815160a08101928390529160059082845b8154815260200190600101908083116131305750505050509050919050565b61012f5460009061ffff600160a01b909104811690831610613184576040516312d439cb60e11b815260040160405180910390fd5b5061ffff166000908152610138602052604090206003015490565b61013960205281600052604060002081815481106131bc57600080fd5b60009182526020909120015460ff8082169350610100820416915062010000810461ffff1690600160201b90046001600160a01b031684565b6131fd614064565b61013080546001600160a01b0319166001600160a01b0383169081179091556040517fa8d87f99a27a2e6062d6b689cd3a0b6642fc08624e974bf9a537f4506c39d3a590600090a250565b613250614064565b61325d6101346000614e05565b60005b81811015613447573683838381811061327b5761327b6157cc565b60800291909101915060019050613295602083018361522c565b60ff1610156132b757604051635139e38f60e01b815260040160405180910390fd5b6132c4602082018261522c565b60ff166132d7604083016020840161522c565b60ff1610156132f9576040516372cfba2f60e01b815260040160405180910390fd5b61330960608201604083016153c2565b61ffff1660000361332d57604051630e4a6bb760e11b815260040160405180910390fd5b600061333f6080830160608401614fbb565b6001600160a01b03160361336657604051631730556f60e11b815260040160405180910390fd5b610134805460018101825560009190915281907fe1c588fe1269da19c317f679b04e226f5e48296f9b2c8351127eb010907c472f016133a58282615a54565b507ffe5bdc4429bfdec832b46d578b96ee07e734c9ba2a0fede09ec182829528450290506133d6602083018361522c565b6133e6604084016020850161522c565b6133f660608501604086016153c2565b6134066080860160608701614fbb565b6040805160ff958616815293909416602084015261ffff91909116828401526001600160a01b0316606082015290519081900360800190a150600101613260565b505050565b613454613fbf565b336000908152610142602052604090205460ff16613485576040516313375fff60e01b815260040160405180910390fd5b33600090815261014b60205260408120600581015490918190036134bc5760405163282de3fd60e01b815260040160405180910390fd5b61012d546040516370a0823160e01b8152306004820152829161010090046001600160a01b0316906370a0823190602401602060405180830381865afa15801561350a573d6000803e3d6000fd5b505050506040513d601f19601f8201168201806040525081019061352e919061591c565b101561354c5760405162980f1d60e51b815260040160405180910390fd5b60006005830181905533815261014660209081526040808320600184529091528120805483929061357e9084906157f8565b909155505060405181815233907ff533994c6db478805bc2597d093f75fa82303ad61fbfacdac5a6957be09ec3c19060200160405180910390a261012d546126979061010090046001600160a01b03163383614005565b6135dd614064565b8680156135ec575061ffff8416155b1561360a57604051633f5bec8b60e21b815260040160405180910390fd5b8460000361362b5760405163201cb0c760e11b815260040160405180910390fd5b8060000361364c5760405163c39baf0160e01b815260040160405180910390fd5b60405180610140016040528061012f60149054906101000a900461ffff1661ffff1681526020018a61ffff1681526020018961ffff168152602001881515815260200187151581526020018681526020018561ffff168152602001841515815260200183815260200182815250610138600061012f60149054906101000a900461ffff1661ffff16815260200190815260200160002060008201518160000160006101000a81548161ffff021916908361ffff16021790555060208201518160000160026101000a81548161ffff021916908361ffff16021790555060408201518160000160046101000a81548161ffff021916908361ffff16021790555060608201518160000160066101000a81548160ff02191690831515021790555060808201518160000160076101000a81548160ff02191690831515021790555060a0820151816001015560c08201518160020160006101000a81548161ffff021916908361ffff16021790555060e08201518160020160026101000a81548160ff0219169083151502179055506101008201518160030155610120820151816004015590505061012f60149054906101000a900461ffff1661ffff167f2f7932a03f72e55972eeb94bc9dd6dd98506033287d081e749d2692a68ed2d838a8a8a8a8a8a8a8a8a60405161384699989796959493929190615a04565b60405180910390a261012f8054600160a01b900461ffff1690601461386a83615af5565b91906101000a81548161ffff021916908361ffff16021790555050505050505050505050565b61013b60205281600052604060002081815481106138ad57600080fd5b6000918252602090912001546001600160a01b03169150829050565b6138d1614064565b8015806138de5750600a81115b156138fc5760405163032f74a560e61b815260040160405180910390fd5b6139096101336000614e23565b60005b60ff8116821115613a195761392281600161580b565b60ff1683838360ff1681811061393a5761393a6157cc565b613950926020604090920201908101915061522c565b60ff161461397157604051636e248ecf60e01b815260040160405180910390fd5b82828260ff16818110613986576139866157cc565b905060400201602001602081019061399e91906153c2565b61ffff166000036139c2576040516301da6f0960e71b815260040160405180910390fd5b61013383838360ff168181106139da576139da6157cc565b83546001810185556000948552602090942060409091029290920192919091019050613a068282615b16565b505080613a1290615b56565b905061390c565b50610135805462ff000019166201000060ff8416908102919091179091556040519081527fc950d09596caadde78461dc0b3072e874c5cfb4d2a2997541c8dfd5956cb21da9060200160405180910390a15050565b613a76614064565b60ff81161580613a8b57506101335460ff8216115b15613aa957604051630203343f60e41b815260040160405180910390fd5b610135805462ff000019166201000060ff8416908102919091179091556040519081527f2792d5048d1af49dcfea42d2f3949a57f64a737dd1ffabd6c31365f35935f8a39060200160405180910390a150565b613b04614064565b6001600160a01b038116613b695760405162461bcd60e51b815260206004820152602660248201527f4f776e61626c653a206e6577206f776e657220697320746865207a65726f206160448201526564647265737360d01b6064820152608401611753565b6122a38161490c565b6101496020528160005260406000208181548110613b8f57600080fd5b6000918252602090912060029091020180546001909101546001600160a01b039091169250905082565b6101328281548110613bca57600080fd5b906000526020600020018181548110613be257600080fd5b9060005260206000209060209182820401919006915091509054906101000a900460ff1681565b613c11614064565b8461ffff16600003613c3657604051637aec8b6560e01b815260040160405180910390fd5b8363ffffffff16600003613c5d57604051632cb129b760e01b815260040160405180910390fd5b8261ffff16600003613c8257604051631782a52560e21b815260040160405180910390fd5b8163ffffffff16600003613ca95760405163fdf3a66d60e01b815260040160405180910390fd5b8060ff16600003613ccd57604051637bac462d60e11b815260040160405180910390fd5b6040805160a0808201835261ffff88811680845263ffffffff8981166020808701829052938a16868801819052918916606080880182905260ff8a166080988901819052610131805465ffffffffffff19168717620100008602176bffffffffffff0000000000001916600160301b870263ffffffff60401b191617600160401b85021760ff60601b1916600160601b830217905589519586529585019290925296830191909152810194909452918301919091527fa5f8f3763a23d987c65c1c8f0dac1d40aa899f19675ae3f57bf56f0cebb02fe7910160405180910390a15050505050565b613dbc613fbf565b33600090815261014b602052604081209060015b60058160ff1611613eba57600083613de96001846159cd565b60ff1660058110613dfc57613dfc6157cc565b015490508015613ea957600084613e146001856159cd565b60ff1660058110613e2757613e276157cc565b01553360009081526101466020908152604080832060ff8616845290915281208054839290613e579084906157f8565b90915550613e67905081846157f8565b6040805160ff851681526020810184905291945033917fa575ecb7103f13a82bbe95aaa4c1e633d714fbc8f59915a52f9d4b9da5edbb22910160405180910390a25b50613eb381615b56565b9050613dd0565b5080600003613edc5760405163cdeb125960e01b815260040160405180910390fd5b61012d546040516370a0823160e01b8152306004820152829161010090046001600160a01b0316906370a0823190602401602060405180830381865afa158015613f2a573d6000803e3d6000fd5b505050506040513d601f19601f82011682018060405250810190613f4e919061591c565b1015613f6d5760405163e3f8535760e01b815260040160405180910390fd5b61012d546126979061010090046001600160a01b03163383614005565b610131546001600160a01b03821660009081526101406020526040812054909161239e91600160601b90910460ff16906158c7565b60975460ff16156124e05760405162461bcd60e51b815260206004820152601060248201526f14185d5cd8589b194e881c185d5cd95960821b6044820152606401611753565b6040516001600160a01b0383811660248301526044820183905261344791859182169063a9059cbb906064015b604051602081830303815290604052915060e01b6020820180516001600160e01b03838183161783525050505061499b565b6065546001600160a01b031633146124e05760405162461bcd60e51b815260206004820181905260248201527f4f776e61626c653a2063616c6c6572206973206e6f7420746865206f776e65726044820152606401611753565b604080516003808252608082019092526060916000919060208201848036833701905050905060005b600381101561413357838160038110614102576141026157cc565b6020020151828281518110614119576141196157cc565b60ff909216602092830291909101909101526001016140e7565b5092915050565b6040516001600160a01b0384811660248301528381166044830152606482018390526141739186918216906323b872dd90608401614032565b50505050565b60008160000361418b5750600061239e565b60005b610132548110156143b257600061013282815481106141af576141af6157cc565b9060005260206000200180548060200260200160405190810160405280929190818152602001828054801561422157602002820191906000526020600020906000905b825461010083900a900460ff168152602060019283018181049485019490930390920291018084116141f25790505b50505050509050805160031415806142a1575080600281518110614247576142476157cc565b602002602001015181600181518110614262576142626157cc565b60200260200101518260008151811061427d5761427d6157cc565b602002602001015161428f919061580b565b614299919061580b565b60ff16606414155b156142ac57506143aa565b600160005b60038160ff161015614394576142cb61271060001961588d565b878260ff16600381106142e0576142e06157cc565b602002015111156142f45760009150614394565b600086888360ff166003811061430c5761430c6157cc565b602002015161431d906127106158c7565b614327919061588d565b90506000848360ff1681518110614340576143406157cc565b602002602001015160ff16606461435791906158c7565b9050806143658360056157f8565b108061437a57506143778160056157f8565b82115b1561438a57600093505050614394565b50506001016142b1565b5080156143a7576001935050505061239e565b50505b60010161418e565b5060009392505050565b6001600160a01b03838116600090815261013a6020526040902054166143f5576040516335f561ad60e11b815260040160405180910390fd5b816000036144165760405163ea1083a760e01b815260040160405180910390fd5b6001600160a01b03808416600090815261013a60205260409020541660015b61012d5460ff9081169082161180159061445757506001600160a01b03821615155b1561462d578060ff16600114801561446d575082155b15614496576001600160a01b03918216600090815261013a60205260409020549091169061461d565b60005b610134548110156145fc57600061013482815481106144ba576144ba6157cc565b600091825260209182902060408051608081018252919092015460ff808216808452610100830482169584019590955261ffff62010000830416938301939093526001600160a01b03600160201b909104166060820152925084161080159061452d5750806020015160ff168360ff1611155b156145f3576000612710826040015161ffff168861454b91906158c7565b614555919061588d565b6001600160a01b0380871660009081526101416020908152604080832060608801519094168352929052908120805492935083929091906145979084906157f8565b90915550506060828101516040805160ff88168152602081018590526001600160a01b03928316818301529051918816927f62172fdd5539b6980f0d71ffb076e09ee509c8aeffb0f9843337ebd99e0f07ad92918290030190a2505b50600101614499565b506001600160a01b03918216600090815261013a6020526040902054909116905b61462681615b56565b9050614435565b5050505050565b600054610100900460ff1661465b5760405162461bcd60e51b815260040161175390615b75565b6124e0614a0c565b600054610100900460ff1661468a5760405162461bcd60e51b815260040161175390615b75565b6124e0614a33565b600054610100900460ff166146b95760405162461bcd60e51b815260040161175390615b75565b6124e0614a63565b600054610100900460ff166124e05760405162461bcd60e51b815260040161175390615b75565b60026001540361473a5760405162461bcd60e51b815260206004820152601f60248201527f5265656e7472616e637947756172643a207265656e7472616e742063616c6c006044820152606401611753565b6002600155565b60018055565b6122a3614064565b7f4910fdfa16fed3260ed0e7147f7cc6da11a60208b5b9406d12a635614ffd91435460ff16156147825761344783614a96565b826001600160a01b03166352d1902d6040518163ffffffff1660e01b8152600401602060405180830381865afa9250505080156147dc575060408051601f3d908101601f191682019092526147d99181019061591c565b60015b61483f5760405162461bcd60e51b815260206004820152602e60248201527f45524331393637557067726164653a206e657720696d706c656d656e7461746960448201526d6f6e206973206e6f74205555505360901b6064820152608401611753565b600080516020615c3483398151915281146148ae5760405162461bcd60e51b815260206004820152602960248201527f45524331393637557067726164653a20756e737570706f727465642070726f786044820152681a58589b195555525160ba1b6064820152608401611753565b50613447838383614b32565b6148c2614b57565b6097805460ff191690557f5db9ee0a495bf2e6ff9c91a7834c1ba4fdd244a5e8aa4e537bd38aeae4b073aa335b6040516001600160a01b03909116815260200160405180910390a1565b606580546001600160a01b038381166001600160a01b0319831681179093556040519116919082907f8be0079c531659141344cd1fd0a4f28419497f9722a3daafe3b4186f6b6457e090600090a35050565b614966613fbf565b6097805460ff191660011790557f62e78cea01bee320cd4e420270b5ea74000d11b0c9f74754ebdbfc544b05a2586148ef3390565b600080602060008451602086016000885af1806149be576040513d6000823e3d81fd5b50506000513d915081156149d65780600114156149e3565b6001600160a01b0384163b155b1561417357604051635274afe760e01b81526001600160a01b0385166004820152602401611753565b600054610100900460ff166147415760405162461bcd60e51b815260040161175390615b75565b600054610100900460ff16614a5a5760405162461bcd60e51b815260040161175390615b75565b6124e03361490c565b600054610100900460ff16614a8a5760405162461bcd60e51b815260040161175390615b75565b6097805460ff19169055565b6001600160a01b0381163b614b035760405162461bcd60e51b815260206004820152602d60248201527f455243313936373a206e657720696d706c656d656e746174696f6e206973206e60448201526c1bdd08184818dbdb9d1c9858dd609a1b6064820152608401611753565b600080516020615c3483398151915280546001600160a01b0319166001600160a01b0392909216919091179055565b614b3b83614ba0565b600082511180614b485750805b15613447576141738383614be0565b60975460ff166124e05760405162461bcd60e51b815260206004820152601460248201527314185d5cd8589b194e881b9bdd081c185d5cd95960621b6044820152606401611753565b614ba981614a96565b6040516001600160a01b038216907fbc7cd75a20ee27fd9adebab32041f755214dbc6bffa90cc0225b39da2e5c2d3b90600090a250565b60606125c48383604051806060016040528060278152602001615c54602791396060600080856001600160a01b031685604051614c1d9190615be4565b600060405180830381855af49150503d8060008114614c58576040519150601f19603f3d011682016040523d82523d6000602084013e614c5d565b606091505b5091509150614c6e86838387614c78565b9695505050505050565b60608315614ce7578251600003614ce0576001600160a01b0385163b614ce05760405162461bcd60e51b815260206004820152601d60248201527f416464726573733a2063616c6c20746f206e6f6e2d636f6e74726163740000006044820152606401611753565b5081614cf1565b614cf18383614cf9565b949350505050565b815115614d095781518083602001fd5b8060405162461bcd60e51b81526004016117539190615c00565b60405180606001604052806003906020820280368337509192915050565b82805482825590600052602060002090601f01602090048101928215614dd75791602002820160005b83821115614da857835183826101000a81548160ff021916908360ff1602179055509260200192600101602081600001049283019260010302614d6a565b8015614dd55782816101000a81549060ff0219169055600101602081600001049283019260010302614da8565b505b50614de3929150614e41565b5090565b6040518060a001604052806005906020820280368337509192915050565b50805460008255906000526020600020908101906122a39190614e56565b50805460008255906000526020600020908101906122a39190614e75565b5b80821115614de35760008155600101614e42565b5b80821115614de35780546001600160c01b0319168155600101614e57565b5b80821115614de357805462ffffff19168155600101614e76565b634e487b7160e01b600052604160045260246000fd5b60405160a0810167ffffffffffffffff81118282101715614ec957614ec9614e90565b60405290565b604051601f8201601f1916810167ffffffffffffffff81118282101715614ef857614ef8614e90565b604052919050565b60ff811681146122a357600080fd5b8035614f1a81614f00565b919050565b600060608284031215614f3157600080fd5b82601f830112614f4057600080fd5b6040516060810181811067ffffffffffffffff82111715614f6357614f63614e90565b604052806060840185811115614f7857600080fd5b845b81811015614f9b578035614f8d81614f00565b835260209283019201614f7a565b509195945050505050565b6001600160a01b03811681146122a357600080fd5b600060208284031215614fcd57600080fd5b81356125c481614fa6565b600080600060608486031215614fed57600080fd5b8335614ff881614fa6565b95602085013595506040909401359392505050565b61ffff811681146122a357600080fd5b60008083601f84011261502f57600080fd5b50813567ffffffffffffffff81111561504757600080fd5b6020830191508360208260051b850101111561506257600080fd5b9250929050565b6000806000806000806080878903121561508257600080fd5b863561508d8161500d565b9550602087013567ffffffffffffffff808211156150aa57600080fd5b6150b68a838b0161501d565b909750955060408901359150808211156150cf57600080fd5b506150dc89828a0161501d565b90945092505060608701356150f081614fa6565b809150509295509295509295565b803563ffffffff81168114614f1a57600080fd5b600080600080600085870361012081121561512c57600080fd5b863561513781614fa6565b9550602087013561514781614fa6565b9450604087013561515781614fa6565b935060a0605f198201121561516b57600080fd5b50615174614ea6565b60608701356151828161500d565b8152615190608088016150fe565b602082015260a08701356151a38161500d565b60408201526151b460c088016150fe565b606082015260e08701356151c781614f00565b608082015291506151db6101008701614f0f565b90509295509295909350565b600080604083850312156151fa57600080fd5b823561520581614fa6565b946020939093013593505050565b60006020828403121561522557600080fd5b5035919050565b60006020828403121561523e57600080fd5b81356125c481614f00565b6020808252825182820181905260009190848201906040850190845b8181101561528a5783516001600160a01b031683529284019291840191600101615265565b50909695505050505050565b600080604083850312156152a957600080fd5b82356152b481614fa6565b915060208301356152c48161500d565b809150509250929050565b6000806000606084860312156152e457600080fd5b83356152ef81614fa6565b925060208401356152ff81614fa6565b9150604084013561530f81614f00565b809150509250925092565b6000806040838503121561532d57600080fd5b823561533881614fa6565b915060208381013567ffffffffffffffff8082111561535657600080fd5b818601915086601f83011261536a57600080fd5b81358181111561537c5761537c614e90565b61538e601f8201601f19168501614ecf565b915080825287848285010111156153a457600080fd5b80848401858401376000848284010152508093505050509250929050565b6000602082840312156153d457600080fd5b81356125c48161500d565b60008151808452602080850194506020840160005b8381101561541357815160ff16875295820195908201906001016153f4565b509495945050505050565b600060208083016020845280855180835260408601915060408160051b87010192506020870160005b8281101561547557603f198886030184526154638583516153df565b94509285019290850190600101615447565b5092979650505050505050565b80358015158114614f1a57600080fd5b6000806000806000806000806000806101408b8d0312156154b257600080fd5b8a356154bd8161500d565b995060208b01356154cd8161500d565b985060408b01356154dd8161500d565b97506154eb60608c01615482565b96506154f960808c01615482565b955060a08b0135945060c08b01356155108161500d565b935061551e60e08c01615482565b92506101008b013591506101208b013590509295989b9194979a5092959850565b60a08101818360005b6005811015615567578151835260209283019290910190600101615548565b50505092915050565b6000806040838503121561558357600080fd5b823561558e81614fa6565b915060208301356152c481614f00565b600080602083850312156155b157600080fd5b823567ffffffffffffffff808211156155c957600080fd5b818501915085601f8301126155dd57600080fd5b8135818111156155ec57600080fd5b8660208260071b850101111561560157600080fd5b60209290920196919550909350505050565b60008060008060008060008060006101208a8c03121561563257600080fd5b893561563d8161500d565b985060208a013561564d8161500d565b975061565b60408b01615482565b965061566960608b01615482565b955060808a0135945060a08a01356156808161500d565b935061568e60c08b01615482565b925060e08a013591506101008a013590509295985092959850929598565b600080604083850312156156bf57600080fd5b82356156ca81614fa6565b915060208301356152c481614fa6565b600080602083850312156156ed57600080fd5b823567ffffffffffffffff8082111561570557600080fd5b818501915085601f83011261571957600080fd5b81358181111561572857600080fd5b8660208260061b850101111561560157600080fd5b6000806040838503121561575057600080fd5b50508035926020909101359150565b600080600080600060a0868803121561577757600080fd5b85356157828161500d565b9450615790602087016150fe565b935060408601356157a08161500d565b92506157ae606087016150fe565b915060808601356157be81614f00565b809150509295509295909350565b634e487b7160e01b600052603260045260246000fd5b634e487b7160e01b600052601160045260246000fd5b8082018082111561239e5761239e6157e2565b60ff818116838216019081111561239e5761239e6157e2565b8181038181111561239e5761239e6157e2565b6020815260006125c460208301846153df565b60006001820161585c5761585c6157e2565b5060010190565b634e487b7160e01b600052601260045260246000fd5b60008261588857615888615863565b500690565b60008261589c5761589c615863565b500490565b61ffff8181168382160280821691908281146158bf576158bf6157e2565b505092915050565b808202811582820484141761239e5761239e6157e2565b63ffffffff8181168382160280821691908281146158bf576158bf6157e2565b64ffffffffff818116838216019080821115614133576141336157e2565b60006020828403121561592e57600080fd5b5051919050565b6020808252602c908201527f46756e6374696f6e206d7573742062652063616c6c6564207468726f7567682060408201526b19195b1959d85d1958d85b1b60a21b606082015260800190565b6020808252602c908201527f46756e6374696f6e206d7573742062652063616c6c6564207468726f7567682060408201526b6163746976652070726f787960a01b606082015260800190565b60ff828116828216039081111561239e5761239e6157e2565b64ffffffffff828116828216039080821115614133576141336157e2565b61ffff998a168152978916602089015295151560408801529315156060870152608086019290925290941660a084015292151560c083015260e08201929092526101008101919091526101200190565b8135615a5f81614f00565b815460ff191660ff8216178255506020820135615a7b81614f00565b815461ff008260081b1691508161ff001982161783556040840135615a9f8161500d565b63ffff00008160101b169050808363ffffff00198416171784556060850135615ac781614fa6565b610100600160c01b0319929092169092179190911760209190911b640100000000600160c01b031617905550565b600061ffff808316818103615b0c57615b0c6157e2565b6001019392505050565b8135615b2181614f00565b815460ff191660ff8216178255506020820135615b3d8161500d565b815462ffff00191660089190911b62ffff001617905550565b600060ff821660ff8103615b6c57615b6c6157e2565b60010192915050565b6020808252602b908201527f496e697469616c697a61626c653a20636f6e7472616374206973206e6f74206960408201526a6e697469616c697a696e6760a81b606082015260800190565b60005b83811015615bdb578181015183820152602001615bc3565b50506000910152565b60008251615bf6818460208701615bc0565b9190910192915050565b6020815260008251806020840152615c1f816040850160208701615bc0565b601f01601f1916919091016040019291505056fe360894a13ba1a3210667c828492db98dca3e2076cc3735a920a3ca505d382bbc416464726573733a206c6f772d6c6576656c2064656c65676174652063616c6c206661696c6564a2646970667358221220ad17500066e14e2f73bd058904dadb14c39e639e685009313608e610ca50500e64736f6c63430008160033",
  "linkReferences": {},
  "deployedLinkReferences": {}
}